{
  "contractName": "Loyalty",
  "abi": [
    {
      "inputs": [
        {
          "internalType": "address",
          "name": "_buyer",
          "type": "address"
        }
      ],
      "stateMutability": "nonpayable",
      "type": "constructor"
    },
    {
      "anonymous": false,
      "inputs": [
        {
          "indexed": false,
          "internalType": "address",
          "name": "buyerAddress",
          "type": "address"
        },
        {
          "indexed": false,
          "internalType": "uint256",
          "name": "points",
          "type": "uint256"
        }
      ],
      "name": "CustomerEarnedLoyaltyPoints",
      "type": "event"
    },
    {
      "anonymous": false,
      "inputs": [
        {
          "indexed": false,
          "internalType": "address",
          "name": "buyerAddress",
          "type": "address"
        },
        {
          "indexed": false,
          "internalType": "bool",
          "name": "isEnrolled",
          "type": "bool"
        }
      ],
      "name": "CustomerEnrolled",
      "type": "event"
    },
    {
      "anonymous": false,
      "inputs": [
        {
          "indexed": false,
          "internalType": "uint256",
          "name": "itemId",
          "type": "uint256"
        },
        {
          "indexed": false,
          "internalType": "string",
          "name": "itemName",
          "type": "string"
        },
        {
          "indexed": false,
          "internalType": "uint256",
          "name": "price",
          "type": "uint256"
        },
        {
          "indexed": false,
          "internalType": "uint256",
          "name": "points",
          "type": "uint256"
        },
        {
          "indexed": false,
          "internalType": "address",
          "name": "sellerAddress",
          "type": "address"
        }
      ],
      "name": "ItemAdded",
      "type": "event"
    },
    {
      "anonymous": false,
      "inputs": [
        {
          "indexed": false,
          "internalType": "uint256",
          "name": "orderId",
          "type": "uint256"
        },
        {
          "indexed": false,
          "internalType": "uint256",
          "name": "itemId",
          "type": "uint256"
        },
        {
          "indexed": false,
          "internalType": "string",
          "name": "itemName",
          "type": "string"
        },
        {
          "indexed": false,
          "internalType": "uint256",
          "name": "price",
          "type": "uint256"
        },
        {
          "indexed": false,
          "internalType": "uint256",
          "name": "points",
          "type": "uint256"
        },
        {
          "indexed": false,
          "internalType": "address",
          "name": "buyerAddress",
          "type": "address"
        },
        {
          "indexed": false,
          "internalType": "address",
          "name": "sellerAddress",
          "type": "address"
        }
      ],
      "name": "ItemOrdered",
      "type": "event"
    },
    {
      "inputs": [
        {
          "internalType": "uint256",
          "name": "",
          "type": "uint256"
        }
      ],
      "name": "allCustomers",
      "outputs": [
        {
          "internalType": "address",
          "name": "customerAddress",
          "type": "address"
        },
        {
          "internalType": "bool",
          "name": "isEnrolled",
          "type": "bool"
        },
        {
          "internalType": "uint256",
          "name": "pointsEarned",
          "type": "uint256"
        }
      ],
      "stateMutability": "view",
      "type": "function"
    },
    {
      "inputs": [
        {
          "internalType": "uint256",
          "name": "",
          "type": "uint256"
        }
      ],
      "name": "allItems",
      "outputs": [
        {
          "internalType": "uint256",
          "name": "itemId",
          "type": "uint256"
        },
        {
          "internalType": "string",
          "name": "itemName",
          "type": "string"
        },
        {
          "internalType": "uint256",
          "name": "price",
          "type": "uint256"
        },
        {
          "internalType": "uint256",
          "name": "points",
          "type": "uint256"
        },
        {
          "internalType": "address",
          "name": "supplierAddress",
          "type": "address"
        }
      ],
      "stateMutability": "view",
      "type": "function"
    },
    {
      "inputs": [
        {
          "internalType": "uint256",
          "name": "",
          "type": "uint256"
        }
      ],
      "name": "allOrders",
      "outputs": [
        {
          "internalType": "uint256",
          "name": "orderId",
          "type": "uint256"
        },
        {
          "internalType": "uint256",
          "name": "itemId",
          "type": "uint256"
        },
        {
          "internalType": "address",
          "name": "customerAddress",
          "type": "address"
        }
      ],
      "stateMutability": "view",
      "type": "function"
    },
    {
      "inputs": [],
      "name": "buyer",
      "outputs": [
        {
          "internalType": "address payable",
          "name": "",
          "type": "address"
        }
      ],
      "stateMutability": "view",
      "type": "function"
    },
    {
      "inputs": [
        {
          "internalType": "address",
          "name": "",
          "type": "address"
        }
      ],
      "name": "customers",
      "outputs": [
        {
          "internalType": "address",
          "name": "customerAddress",
          "type": "address"
        },
        {
          "internalType": "bool",
          "name": "isEnrolled",
          "type": "bool"
        },
        {
          "internalType": "uint256",
          "name": "pointsEarned",
          "type": "uint256"
        }
      ],
      "stateMutability": "view",
      "type": "function"
    },
    {
      "inputs": [],
      "name": "itemSequence",
      "outputs": [
        {
          "internalType": "uint256",
          "name": "",
          "type": "uint256"
        }
      ],
      "stateMutability": "view",
      "type": "function"
    },
    {
      "inputs": [
        {
          "internalType": "uint256",
          "name": "",
          "type": "uint256"
        }
      ],
      "name": "items",
      "outputs": [
        {
          "internalType": "uint256",
          "name": "itemId",
          "type": "uint256"
        },
        {
          "internalType": "string",
          "name": "itemName",
          "type": "string"
        },
        {
          "internalType": "uint256",
          "name": "price",
          "type": "uint256"
        },
        {
          "internalType": "uint256",
          "name": "points",
          "type": "uint256"
        },
        {
          "internalType": "address",
          "name": "supplierAddress",
          "type": "address"
        }
      ],
      "stateMutability": "view",
      "type": "function"
    },
    {
      "inputs": [],
      "name": "orderSequence",
      "outputs": [
        {
          "internalType": "uint256",
          "name": "",
          "type": "uint256"
        }
      ],
      "stateMutability": "view",
      "type": "function"
    },
    {
      "inputs": [
        {
          "internalType": "uint256",
          "name": "",
          "type": "uint256"
        }
      ],
      "name": "orders",
      "outputs": [
        {
          "internalType": "uint256",
          "name": "orderId",
          "type": "uint256"
        },
        {
          "internalType": "uint256",
          "name": "itemId",
          "type": "uint256"
        },
        {
          "internalType": "address",
          "name": "customerAddress",
          "type": "address"
        }
      ],
      "stateMutability": "view",
      "type": "function"
    },
    {
      "inputs": [],
      "name": "owner",
      "outputs": [
        {
          "internalType": "address payable",
          "name": "",
          "type": "address"
        }
      ],
      "stateMutability": "view",
      "type": "function"
    },
    {
      "inputs": [
        {
          "internalType": "string",
          "name": "_itemName",
          "type": "string"
        },
        {
          "internalType": "uint256",
          "name": "_price",
          "type": "uint256"
        },
        {
          "internalType": "uint256",
          "name": "_points",
          "type": "uint256"
        }
      ],
      "name": "addItem",
      "outputs": [
        {
          "internalType": "uint256",
          "name": "",
          "type": "uint256"
        }
      ],
      "stateMutability": "nonpayable",
      "type": "function"
    },
    {
      "inputs": [
        {
          "internalType": "uint256",
          "name": "_itemId",
          "type": "uint256"
        }
      ],
      "name": "getItem",
      "outputs": [
        {
          "internalType": "uint256",
          "name": "itemId",
          "type": "uint256"
        },
        {
          "internalType": "string",
          "name": "itemName",
          "type": "string"
        },
        {
          "internalType": "uint256",
          "name": "price",
          "type": "uint256"
        },
        {
          "internalType": "uint256",
          "name": "points",
          "type": "uint256"
        },
        {
          "internalType": "address",
          "name": "sellerAddress",
          "type": "address"
        }
      ],
      "stateMutability": "view",
      "type": "function"
    },
    {
      "inputs": [
        {
          "internalType": "uint256",
          "name": "_itemId",
          "type": "uint256"
        }
      ],
      "name": "buyItem",
      "outputs": [
        {
          "internalType": "uint256",
          "name": "orderId",
          "type": "uint256"
        },
        {
          "internalType": "uint256",
          "name": "itemId",
          "type": "uint256"
        },
        {
          "internalType": "string",
          "name": "itemName",
          "type": "string"
        },
        {
          "internalType": "uint256",
          "name": "price",
          "type": "uint256"
        },
        {
          "internalType": "uint256",
          "name": "points",
          "type": "uint256"
        },
        {
          "internalType": "address",
          "name": "buyerAddress",
          "type": "address"
        },
        {
          "internalType": "address",
          "name": "supplierAddress",
          "type": "address"
        }
      ],
      "stateMutability": "payable",
      "type": "function"
    },
    {
      "inputs": [
        {
          "internalType": "address",
          "name": "_customer",
          "type": "address"
        }
      ],
      "name": "enroll",
      "outputs": [
        {
          "internalType": "bool",
          "name": "",
          "type": "bool"
        }
      ],
      "stateMutability": "nonpayable",
      "type": "function"
    },
    {
      "inputs": [
        {
          "internalType": "address",
          "name": "_customer",
          "type": "address"
        }
      ],
      "name": "isCustomerEnrolled",
      "outputs": [
        {
          "internalType": "bool",
          "name": "",
          "type": "bool"
        }
      ],
      "stateMutability": "view",
      "type": "function"
    },
    {
      "inputs": [
        {
          "internalType": "address",
          "name": "_customer",
          "type": "address"
        }
      ],
      "name": "getCustomer",
      "outputs": [
        {
          "internalType": "address",
          "name": "customerAccount",
          "type": "address"
        },
        {
          "internalType": "bool",
          "name": "enrolled",
          "type": "bool"
        },
        {
          "internalType": "uint256",
          "name": "pointsEarned",
          "type": "uint256"
        }
      ],
      "stateMutability": "view",
      "type": "function"
    },
    {
      "inputs": [],
      "name": "getBalanceLoyaltyPoints",
      "outputs": [
        {
          "internalType": "uint256",
          "name": "",
          "type": "uint256"
        }
      ],
      "stateMutability": "view",
      "type": "function"
    },
    {
      "inputs": [
        {
          "internalType": "address",
          "name": "account",
          "type": "address"
        }
      ],
      "name": "getBalance",
      "outputs": [
        {
          "internalType": "uint256",
          "name": "",
          "type": "uint256"
        }
      ],
      "stateMutability": "view",
      "type": "function"
    },
    {
      "inputs": [],
      "name": "transferFunds",
      "outputs": [
        {
          "internalType": "bool",
          "name": "",
          "type": "bool"
        }
      ],
      "stateMutability": "payable",
      "type": "function"
    }
  ],
  "bytecode": "0x60806040523480156200001157600080fd5b506040516200212e3803806200212e833981810160405281019062000037919062000129565b336000806101000a81548173ffffffffffffffffffffffffffffffffffffffff021916908373ffffffffffffffffffffffffffffffffffffffff16021790555080600160006101000a81548173ffffffffffffffffffffffffffffffffffffffff021916908373ffffffffffffffffffffffffffffffffffffffff160217905550506200015b565b600080fd5b600073ffffffffffffffffffffffffffffffffffffffff82169050919050565b6000620000f182620000c4565b9050919050565b6200010381620000e4565b81146200010f57600080fd5b50565b6000815190506200012381620000f8565b92915050565b600060208284031215620001425762000141620000bf565b5b6000620001528482850162000112565b91505092915050565b611fc3806200016b6000396000f3fe6080604052600436106101145760003560e01c8063bc6f2022116100a0578063e7fb74c711610064578063e7fb74c714610404578063eb5945e41461043a578063eb6fbd2014610479578063f8b2cb4f146104b8578063ff68fa6e146104f557610114565b8063bc6f2022146102f1578063be5762521461031c578063bfb231d214610347578063cb949e5114610388578063d5e6c333146103c757610114565b80637150d8ae116100e75780637150d8ae146101e25780637aa8eb351461020d5780638da5cb5b1461024a578063a85c38ef14610275578063ba83d1a0146102b457610114565b80633129e77314610119578063336989ae1461015a5780633c68eb81146101995780634ca74984146101b7575b600080fd5b34801561012557600080fd5b50610140600480360381019061013b91906116e1565b610536565b6040516101519594939291906117f7565b60405180910390f35b34801561016657600080fd5b50610181600480360381019061017c919061187d565b610663565b604051610190939291906118c5565b60405180910390f35b6101a16106ba565b6040516101ae91906118fc565b60405180910390f35b3480156101c357600080fd5b506101cc610757565b6040516101d99190611917565b60405180910390f35b3480156101ee57600080fd5b506101f761075d565b6040516102049190611953565b60405180910390f35b34801561021957600080fd5b50610234600480360381019061022f919061187d565b610783565b60405161024191906118fc565b60405180910390f35b34801561025657600080fd5b5061025f6108bd565b60405161026c9190611953565b60405180910390f35b34801561028157600080fd5b5061029c600480360381019061029791906116e1565b6108e1565b6040516102ab9392919061196e565b60405180910390f35b3480156102c057600080fd5b506102db60048036038101906102d6919061187d565b61092b565b6040516102e891906118fc565b60405180910390f35b3480156102fd57600080fd5b50610306610ae8565b6040516103139190611917565b60405180910390f35b34801561032857600080fd5b50610331610b32565b60405161033e9190611917565b60405180910390f35b34801561035357600080fd5b5061036e600480360381019061036991906116e1565b610b38565b60405161037f9594939291906117f7565b60405180910390f35b34801561039457600080fd5b506103af60048036038101906103aa919061187d565b610c16565b6040516103be939291906118c5565b60405180910390f35b3480156103d357600080fd5b506103ee60048036038101906103e99190611ada565b610d1e565b6040516103fb9190611917565b60405180910390f35b61041e600480360381019061041991906116e1565b610f54565b6040516104319796959493929190611b49565b60405180910390f35b34801561044657600080fd5b50610461600480360381019061045c91906116e1565b6113a8565b6040516104709392919061196e565b60405180910390f35b34801561048557600080fd5b506104a0600480360381019061049b91906116e1565b611402565b6040516104af939291906118c5565b60405180910390f35b3480156104c457600080fd5b506104df60048036038101906104da919061187d565b611469565b6040516104ec9190611917565b60405180910390f35b34801561050157600080fd5b5061051c600480360381019061051791906116e1565b61148a565b60405161052d9594939291906117f7565b60405180910390f35b6000606060008060006004600087815260200190815260200160002060000154945060046000878152602001908152602001600020600101805461057990611bee565b80601f01602080910402602001604051908101604052809291908181526020018280546105a590611bee565b80156105f25780601f106105c7576101008083540402835291602001916105f2565b820191906000526020600020905b8154815290600101906020018083116105d557829003601f168201915b5050505050935060046000878152602001908152602001600020600201549250600460008781526020019081526020016000206003015491508484848460008054906101000a900473ffffffffffffffffffffffffffffffffffffffff169450945094509450945091939590929450565b60066020528060005260406000206000915090508060000160009054906101000a900473ffffffffffffffffffffffffffffffffffffffff16908060000160149054906101000a900460ff16908060010154905083565b6000806103e8905060008060009054906101000a900473ffffffffffffffffffffffffffffffffffffffff1673ffffffffffffffffffffffffffffffffffffffff168260405161070990611c51565b60006040518083038185875af1925050503d8060008114610746576040519150601f19603f3d011682016040523d82523d6000602084013e61074b565b606091505b50509050809250505090565b60025481565b600160009054906101000a900473ffffffffffffffffffffffffffffffffffffffff1681565b60008173ffffffffffffffffffffffffffffffffffffffff16600660008473ffffffffffffffffffffffffffffffffffffffff1673ffffffffffffffffffffffffffffffffffffffff16815260200190815260200160002060000160009054906101000a900473ffffffffffffffffffffffffffffffffffffffff1673ffffffffffffffffffffffffffffffffffffffff1614610855576040517f08c379a000000000000000000000000000000000000000000000000000000000815260040161084c90611cb2565b60405180910390fd5b600660008373ffffffffffffffffffffffffffffffffffffffff1673ffffffffffffffffffffffffffffffffffffffff16815260200190815260200160002060000160149054906101000a900460ff16156108b357600190506108b8565b600090505b919050565b60008054906101000a900473ffffffffffffffffffffffffffffffffffffffff1681565b60086020528060005260406000206000915090508060000154908060010154908060020160009054906101000a900473ffffffffffffffffffffffffffffffffffffffff16905083565b6000600660008373ffffffffffffffffffffffffffffffffffffffff1673ffffffffffffffffffffffffffffffffffffffff16815260200190815260200160002060000160149054906101000a900460ff16156109bd576040517f08c379a00000000000000000000000000000000000000000000000000000000081526004016109b490611d1e565b60405180910390fd5b60405180606001604052808373ffffffffffffffffffffffffffffffffffffffff1681526020016001151581526020016000815250600660008473ffffffffffffffffffffffffffffffffffffffff1673ffffffffffffffffffffffffffffffffffffffff16815260200190815260200160002060008201518160000160006101000a81548173ffffffffffffffffffffffffffffffffffffffff021916908373ffffffffffffffffffffffffffffffffffffffff16021790555060208201518160000160146101000a81548160ff021916908315150217905550604082015181600101559050507f1ed6ab951edca51c9107d9d1354f53168da334f9939845095f0d1c6648ea5705826001604051610ad7929190611d3e565b60405180910390a160019050919050565b6000600660003373ffffffffffffffffffffffffffffffffffffffff1673ffffffffffffffffffffffffffffffffffffffff16815260200190815260200160002060010154905090565b60035481565b6004602052806000526040600020600091509050806000015490806001018054610b6190611bee565b80601f0160208091040260200160405190810160405280929190818152602001828054610b8d90611bee565b8015610bda5780601f10610baf57610100808354040283529160200191610bda565b820191906000526020600020905b815481529060010190602001808311610bbd57829003601f168201915b5050505050908060020154908060030154908060040160009054906101000a900473ffffffffffffffffffffffffffffffffffffffff16905085565b6000806000600660008573ffffffffffffffffffffffffffffffffffffffff1673ffffffffffffffffffffffffffffffffffffffff16815260200190815260200160002060000160009054906101000a900473ffffffffffffffffffffffffffffffffffffffff169250600660008573ffffffffffffffffffffffffffffffffffffffff1673ffffffffffffffffffffffffffffffffffffffff16815260200190815260200160002060000160149054906101000a900460ff169150600660008573ffffffffffffffffffffffffffffffffffffffff1673ffffffffffffffffffffffffffffffffffffffff1681526020019081526020016000206001015490509193909250565b6000610d28611578565b6000600260008154610d3990611d96565b91905081905590506040518060a0016040528082815260200187815260200186815260200185815260200160008054906101000a900473ffffffffffffffffffffffffffffffffffffffff1673ffffffffffffffffffffffffffffffffffffffff1681525091508160046000838152602001908152602001600020600082015181600001556020820151816001019080519060200190610dda9291906115bd565b50604082015181600201556060820151816003015560808201518160040160006101000a81548173ffffffffffffffffffffffffffffffffffffffff021916908373ffffffffffffffffffffffffffffffffffffffff1602179055509050507f420923602fca72c60759681aad70a2b630015d9bc59cf9a90ec4643a77d223158187878760008054906101000a900473ffffffffffffffffffffffffffffffffffffffff16604051610e90959493929190611e3e565b60405180910390a16005829080600181540180825580915050600190039060005260206000209060050201600090919091909150600082015181600001556020820151816001019080519060200190610eea9291906115bd565b50604082015181600201556060820151816003015560808201518160040160006101000a81548173ffffffffffffffffffffffffffffffffffffffff021916908373ffffffffffffffffffffffffffffffffffffffff160217905550505080925050509392505050565b60008060606000806000806060600080610f6c611643565b6000600360008154610f7d90611d96565b9190508190559050600460008e81526020019081526020016000206001018054610fa690611bee565b80601f0160208091040260200160405190810160405280929190818152602001828054610fd290611bee565b801561101f5780601f10610ff45761010080835404028352916020019161101f565b820191906000526020600020905b81548152906001019060200180831161100257829003601f168201915b50505050509450600460008e8152602001908152602001600020600201549250600460008e8152602001908152602001600020600301549350600160009054906101000a900473ffffffffffffffffffffffffffffffffffffffff1673ffffffffffffffffffffffffffffffffffffffff163373ffffffffffffffffffffffffffffffffffffffff16146110b257600080fd5b60008060009054906101000a900473ffffffffffffffffffffffffffffffffffffffff1673ffffffffffffffffffffffffffffffffffffffff16846040516110f990611c51565b60006040518083038185875af1925050503d8060008114611136576040519150601f19603f3d011682016040523d82523d6000602084013e61113b565b606091505b5050905060405180606001604052808381526020018f81526020013373ffffffffffffffffffffffffffffffffffffffff1681525092508260086000848152602001908152602001600020600082015181600001556020820151816001015560408201518160020160006101000a81548173ffffffffffffffffffffffffffffffffffffffff021916908373ffffffffffffffffffffffffffffffffffffffff16021790555090505084600660003373ffffffffffffffffffffffffffffffffffffffff1673ffffffffffffffffffffffffffffffffffffffff16815260200190815260200160002060010160008282546112369190611e98565b925050819055507f9d9ed131434a7c4d3a86e98ec84fe625c13803987302aa7676d02e49d7459c0d338660405161126e929190611eee565b60405180910390a17f7826bfde34a092e37bb82307628f47f5cbb73d5f4c46d8e4ae8ff550adc51e9e828f8887893360008054906101000a900473ffffffffffffffffffffffffffffffffffffffff166040516112d19796959493929190611f17565b60405180910390a16009839080600181540180825580915050600190039060005260206000209060030201600090919091909150600082015181600001556020820151816001015560408201518160020160006101000a81548173ffffffffffffffffffffffffffffffffffffffff021916908373ffffffffffffffffffffffffffffffffffffffff1602179055505050818e8786883360008054906101000a900473ffffffffffffffffffffffffffffffffffffffff169c509c509c509c509c509c509c50505050505050919395979092949650565b600981815481106113b857600080fd5b90600052602060002090600302016000915090508060000154908060010154908060020160009054906101000a900473ffffffffffffffffffffffffffffffffffffffff16905083565b6007818154811061141257600080fd5b90600052602060002090600202016000915090508060000160009054906101000a900473ffffffffffffffffffffffffffffffffffffffff16908060000160149054906101000a900460ff16908060010154905083565b60008173ffffffffffffffffffffffffffffffffffffffff16319050919050565b6005818154811061149a57600080fd5b90600052602060002090600502016000915090508060000154908060010180546114c390611bee565b80601f01602080910402602001604051908101604052809291908181526020018280546114ef90611bee565b801561153c5780601f106115115761010080835404028352916020019161153c565b820191906000526020600020905b81548152906001019060200180831161151f57829003601f168201915b5050505050908060020154908060030154908060040160009054906101000a900473ffffffffffffffffffffffffffffffffffffffff16905085565b6040518060a0016040528060008152602001606081526020016000815260200160008152602001600073ffffffffffffffffffffffffffffffffffffffff1681525090565b8280546115c990611bee565b90600052602060002090601f0160209004810192826115eb5760008555611632565b82601f1061160457805160ff1916838001178555611632565b82800160010185558215611632579182015b82811115611631578251825591602001919060010190611616565b5b50905061163f919061167a565b5090565b60405180606001604052806000815260200160008152602001600073ffffffffffffffffffffffffffffffffffffffff1681525090565b5b8082111561169357600081600090555060010161167b565b5090565b6000604051905090565b600080fd5b600080fd5b6000819050919050565b6116be816116ab565b81146116c957600080fd5b50565b6000813590506116db816116b5565b92915050565b6000602082840312156116f7576116f66116a1565b5b6000611705848285016116cc565b91505092915050565b611717816116ab565b82525050565b600081519050919050565b600082825260208201905092915050565b60005b8381101561175757808201518184015260208101905061173c565b83811115611766576000848401525b50505050565b6000601f19601f8301169050919050565b60006117888261171d565b6117928185611728565b93506117a2818560208601611739565b6117ab8161176c565b840191505092915050565b600073ffffffffffffffffffffffffffffffffffffffff82169050919050565b60006117e1826117b6565b9050919050565b6117f1816117d6565b82525050565b600060a08201905061180c600083018861170e565b818103602083015261181e818761177d565b905061182d604083018661170e565b61183a606083018561170e565b61184760808301846117e8565b9695505050505050565b61185a816117d6565b811461186557600080fd5b50565b60008135905061187781611851565b92915050565b600060208284031215611893576118926116a1565b5b60006118a184828501611868565b91505092915050565b60008115159050919050565b6118bf816118aa565b82525050565b60006060820190506118da60008301866117e8565b6118e760208301856118b6565b6118f4604083018461170e565b949350505050565b600060208201905061191160008301846118b6565b92915050565b600060208201905061192c600083018461170e565b92915050565b600061193d826117b6565b9050919050565b61194d81611932565b82525050565b60006020820190506119686000830184611944565b92915050565b6000606082019050611983600083018661170e565b611990602083018561170e565b61199d60408301846117e8565b949350505050565b600080fd5b600080fd5b7f4e487b7100000000000000000000000000000000000000000000000000000000600052604160045260246000fd5b6119e78261176c565b810181811067ffffffffffffffff82111715611a0657611a056119af565b5b80604052505050565b6000611a19611697565b9050611a2582826119de565b919050565b600067ffffffffffffffff821115611a4557611a446119af565b5b611a4e8261176c565b9050602081019050919050565b82818337600083830152505050565b6000611a7d611a7884611a2a565b611a0f565b905082815260208101848484011115611a9957611a986119aa565b5b611aa4848285611a5b565b509392505050565b600082601f830112611ac157611ac06119a5565b5b8135611ad1848260208601611a6a565b91505092915050565b600080600060608486031215611af357611af26116a1565b5b600084013567ffffffffffffffff811115611b1157611b106116a6565b5b611b1d86828701611aac565b9350506020611b2e868287016116cc565b9250506040611b3f868287016116cc565b9150509250925092565b600060e082019050611b5e600083018a61170e565b611b6b602083018961170e565b8181036040830152611b7d818861177d565b9050611b8c606083018761170e565b611b99608083018661170e565b611ba660a08301856117e8565b611bb360c08301846117e8565b98975050505050505050565b7f4e487b7100000000000000000000000000000000000000000000000000000000600052602260045260246000fd5b60006002820490506001821680611c0657607f821691505b60208210811415611c1a57611c19611bbf565b5b50919050565b600081905092915050565b50565b6000611c3b600083611c20565b9150611c4682611c2b565b600082019050919050565b6000611c5c82611c2e565b9150819050919050565b7f496e76616c696420437573746f6d657200000000000000000000000000000000600082015250565b6000611c9c601083611728565b9150611ca782611c66565b602082019050919050565b60006020820190508181036000830152611ccb81611c8f565b9050919050565b7f437573746f6d657220416c726561647920456e726f6c6c656400000000000000600082015250565b6000611d08601983611728565b9150611d1382611cd2565b602082019050919050565b60006020820190508181036000830152611d3781611cfb565b9050919050565b6000604082019050611d5360008301856117e8565b611d6060208301846118b6565b9392505050565b7f4e487b7100000000000000000000000000000000000000000000000000000000600052601160045260246000fd5b6000611da1826116ab565b91507fffffffffffffffffffffffffffffffffffffffffffffffffffffffffffffffff821415611dd457611dd3611d67565b5b600182019050919050565b6000819050919050565b6000611e04611dff611dfa846117b6565b611ddf565b6117b6565b9050919050565b6000611e1682611de9565b9050919050565b6000611e2882611e0b565b9050919050565b611e3881611e1d565b82525050565b600060a082019050611e53600083018861170e565b8181036020830152611e65818761177d565b9050611e74604083018661170e565b611e81606083018561170e565b611e8e6080830184611e2f565b9695505050505050565b6000611ea3826116ab565b9150611eae836116ab565b9250827fffffffffffffffffffffffffffffffffffffffffffffffffffffffffffffffff03821115611ee357611ee2611d67565b5b828201905092915050565b6000604082019050611f0360008301856117e8565b611f10602083018461170e565b9392505050565b600060e082019050611f2c600083018a61170e565b611f39602083018961170e565b8181036040830152611f4b818861177d565b9050611f5a606083018761170e565b611f67608083018661170e565b611f7460a08301856117e8565b611f8160c0830184611e2f565b9897505050505050505056fea264697066735822122035e96b0ca1c88e4f1e0d364fb59ac7f72a6686c07cf34353b2a599e8c0e2ee4564736f6c634300080c0033",
  "immutableReferences": {},
  "source": "// SPDX-License-Identifier: MIT\npragma solidity ^0.8.0;\n\n/// @title Contract for Loyalty Points \n/// @author Gunasundaram\n/// @notice Customer can earn enroll for a loyalty program, earn loyalty points when purchasing an item and view balance loyalty points\n/// @dev More functions to be added later \n\ncontract Loyalty {\n  address payable public owner;\n  address payable public buyer;\n  uint public itemSequence;\n  uint public orderSequence;\n\n  struct item {\n    uint itemId;\n    string itemName;\n    uint price;\n    uint points;\n    address supplierAddress;\n  }\n\n  struct customer {\n    address customerAddress;\n    bool isEnrolled;\n    uint pointsEarned;\n  }\n\n  struct order {\n    uint orderId;\n    uint itemId;\n    address customerAddress;\n  } \n  \n  mapping (uint => item) public items;\n  item[] public allItems; \n\n  mapping (address => customer) public customers;\n  customer[] public allCustomers;\n\n  mapping (uint => order) public orders;\n  order[] public allOrders;\n\n  constructor (address _buyer) {\n    owner = payable(msg.sender);\n    buyer = payable(_buyer);\n  }\n\n  modifier isOwner() {\n    require (msg.sender == owner, \"Not the Owner!\");\n    _;\n  }\n\n  modifier isEnrolled(address payable _buyerAddress) {\n    require (customers[_buyerAddress].isEnrolled, \"Not Enrolled\");\n    _;\n  }\n\n  modifier paidEnough(uint _itemId) {\n    uint _price = items[_itemId].price; \n    require(msg.value >= _price); \n    _;\n  }\n\n  modifier checkValue(uint _itemId, address payable _buyerAddress) {\n    _;\n    uint _price = items[_itemId].price;\n    uint _amountToRefund = msg.value - _price;\n    _buyerAddress.transfer(_amountToRefund);\n  }\n\n  /// @notice Emitted when customer enrolls for loyalty program\n  event ItemAdded(uint itemId, string itemName, uint price, uint points, address sellerAddress);\n\n  /// @notice Emitted when customer buys an item  \n  event ItemOrdered(uint orderId, uint itemId, string itemName, uint price, uint points, address buyerAddress, address sellerAddress);\n\n  /// @notice Emitted when customer enrolls for loyalty program\n  event CustomerEnrolled(address buyerAddress, bool isEnrolled);\n  \n  /// @notice Emitted when customer earns loyalty points\n  event CustomerEarnedLoyaltyPoints(address buyerAddress, uint points);\n\n  /// @notice Add Item \n  function addItem(string memory _itemName, uint _price, uint _points) public returns (uint) {\n    item memory _newItem;\n    uint _newItemId = ++itemSequence;\n    \n    _newItem = item(_newItemId, _itemName, _price, _points, owner);\n    items[_newItemId] = _newItem;\n\n    emit ItemAdded(_newItemId, _itemName, _price, _points, owner); \n    allItems.push(_newItem);\n\n    return _newItemId;\n  }\n\n  /// @notice Returns Item\n  function getItem(uint _itemId) public view returns (uint itemId, string memory itemName, uint price, uint points, address sellerAddress) { \n     itemId = items[_itemId].itemId; \n     itemName = items[_itemId].itemName; \n     price = items[_itemId].price; \n     points = items[_itemId].points;\n     return (itemId, itemName, price, points, owner); \n  } \n\n  /// @notice Order item and if customer has enrolled and loyalty points applicable, it is earned by the customer\n  function buyItem(uint _itemId) payable public \n    returns(uint orderId, uint itemId, string memory itemName, uint price, uint points, address buyerAddress, address supplierAddress) {\n    \n    string memory _itemName;\n    uint _points;\n    uint _price;\n    order memory _newOrder;\n    uint _newOrderId = ++orderSequence;\n\n    //Purchased Item\n    _itemName = items[_itemId].itemName;\n    _price = items[_itemId].price;\n    _points = items[_itemId].points;\n\n    //msg.sender must be \"buyer\" and the price must be equal to the msg.value\n    require(msg.sender == buyer);\n\n    //transfer the price \n\n    (bool success,) = owner.call{value : _price}(\"\");\n\n    //Order \n    _newOrder = order(_newOrderId, _itemId, msg.sender);\n    orders[_newOrderId] = _newOrder;\n\n    //increment the loyalty points earned by the customer \n    customers[msg.sender].pointsEarned += _points; \n    emit CustomerEarnedLoyaltyPoints(msg.sender, _points);\n\n    //Emit ItemOrdered event and add the order\n    emit ItemOrdered(_newOrderId, _itemId, _itemName, _price, _points, msg.sender, owner);\n    allOrders.push(_newOrder);\n\n    //Return the order information\n    return (_newOrderId, _itemId, _itemName, _price, _points, msg.sender, owner);\n  }\n\n  /// @notice Customer enrolls for loyalty program\n  function enroll(address _customer) public returns (bool){\n    require (!customers[_customer].isEnrolled, \"Customer Already Enrolled\");\n    customers[_customer] = customer(_customer, true, 0);\n    emit CustomerEnrolled(_customer, true);\n    return true;\n  }\n\n  /// @notice Checks whether Customer enrolled for the loyalty program\n  function isCustomerEnrolled(address _customer) public view returns (bool) {\n    require (customers[_customer].customerAddress == _customer, \"Invalid Customer\");\n    if (customers[_customer].isEnrolled) \n      return true;\n    else \n      return false;\n  }\n\n  /// @notice Returns Customer information\n  function getCustomer(address _customer) public view returns (address customerAccount, bool enrolled, uint pointsEarned) { \n    customerAccount = customers[_customer].customerAddress; \n    enrolled = customers[_customer].isEnrolled; \n    pointsEarned = customers[_customer].pointsEarned; \n    return (customerAccount, enrolled, pointsEarned);\n  }\n\n  /// @notice Returns Loyalty Points\n  function getBalanceLoyaltyPoints() public view returns (uint) {\n    return customers[msg.sender].pointsEarned; \n  }\n\n  function getBalance(address account) public view returns (uint256) {\n    return account.balance;\n  }\n\n  function transferFunds() public payable returns (bool) {\n    uint256 amount;\n    amount = 1000;\n    (bool success,) = owner.call{value : amount}(\"\");\n    return success;\n  }\n\n}\n",
  "sourcePath": "/Users/guna/OneDrive/Repo/blockchain/final-project/blockchain-developer-bootcamp-final-project/contracts/Loyalty.sol",
  "compiler": {
    "name": "solc",
    "version": "0.8.12+commit.f00d7308.Emscripten.clang"
  },
  "schemaVersion": "3.4.4",
  "updatedAt": "2022-03-11T20:22:56.763Z",
  "devdoc": {
    "author": "Gunasundaram",
    "details": "More functions to be added later ",
    "kind": "dev",
    "methods": {},
    "title": "Contract for Loyalty Points ",
    "version": 1
  },
  "userdoc": {
    "events": {
      "CustomerEarnedLoyaltyPoints(address,uint256)": {
        "notice": "Emitted when customer earns loyalty points"
      },
      "CustomerEnrolled(address,bool)": {
        "notice": "Emitted when customer enrolls for loyalty program"
      },
      "ItemAdded(uint256,string,uint256,uint256,address)": {
        "notice": "Emitted when customer enrolls for loyalty program"
      },
      "ItemOrdered(uint256,uint256,string,uint256,uint256,address,address)": {
        "notice": "Emitted when customer buys an item  "
      }
    },
    "kind": "user",
    "methods": {
      "addItem(string,uint256,uint256)": {
        "notice": "Add Item "
      },
      "buyItem(uint256)": {
        "notice": "Order item and if customer has enrolled and loyalty points applicable, it is earned by the customer"
      },
      "enroll(address)": {
        "notice": "Customer enrolls for loyalty program"
      },
      "getBalanceLoyaltyPoints()": {
        "notice": "Returns Loyalty Points"
      },
      "getCustomer(address)": {
        "notice": "Returns Customer information"
      },
      "getItem(uint256)": {
        "notice": "Returns Item"
      },
      "isCustomerEnrolled(address)": {
        "notice": "Checks whether Customer enrolled for the loyalty program"
      }
    },
    "notice": "Customer can earn enroll for a loyalty program, earn loyalty points when purchasing an item and view balance loyalty points",
    "version": 1
  }
}